:02000000FE2FD1
:100F80008316031306108615831206140630F2002A
:100F90001330F100B130F000F00BCC2FF10BCC2F5F
:100FA000F20BCC2FD32F8312031306100630F2005E
:100FB0001330F100B130F000F00BDC2FF10BDC2F1F
:100FC000F20BDC2FE32F83120313861DC42F0614AC
:100FD0008230F100DD30F000F00BEC2FF10BEC2F44
:100FE000F12F8312031306108230F100DD30F00080
:100FF000F00BF82FF10BF82FFD2FE32F8301C02FFB
:02400E0059FF58
:00000001FF
